:020000040800F2
:10000000502900200101000867110008A50D000813
:10001000631100084D0A0008F91B000800000000E9
:100020000000000000000000000000004917000868
:10003000510A000800000000331600088918000863
:100040001B0100081B0100081B0100081B01000820
:100050001B0100081B0100081B0100081B01000810
:100060001B0100081B0100081B0100081B01000800
:100070001B0100081B0100081B0100081B010008F0
:100080001B0100081B0100081B0100081B010008E0
:100090001B0100081B0100081B0100081B010008D0
:1000A0001B0100081B0100081B0100081B010008C0
:1000B0001B0100081B0100081B0100081B010008B0
:1000C0001B0100081B0100081B0100081B010008A0
:1000D0001B0100081B0100081B0100081B01000890
:1000E0001B0100081B0100081B010008DFF80CD0F1
:1000F00000F09AFC00480047412F000850290020DA
:100100000648804706480047FEE7FEE7FEE7FEE7B1
:10011000FEE7FEE7FEE7FEE7FEE7FEE78D180008D4
:10012000ED000008F0B480EA0102D40F4200B2EB07
:10013000410F02D20246084611464A0042D0C30D82
:10014000DDB2C1F3C752AD1A202D35DAC1F3160165
:1001500041F4000204B15242C5F1200602FA06F150
:100160002A411044B3EBD05F23D0C4B1012DA0EBE2
:10017000C35009DCF0BC4FF0004202EAC352DBB2CC
:1001800000F5000000F07DBB400000F1807000EB46
:10019000C350A0F1807040EAD170490009E04908DD
:1001A00041EAC071A0EBC35000F50000400800EB2D
:1001B000C350F0BC00F05CBB6142012202EB410184
:1001C000001BF6E7F0BC704781F00041AAE780F021
:1001D0000040A7E780EA010210B502F000434000AA
:1001E00022D04A001FD0010E01EB1261C0F356006D
:1001F000C2F3560240F4000042F40002A0FB0220C9
:1002000000047F39140400D0401C50EA124001D48D
:100210004000491EC2B20C0604EBD010401C40083E
:10022000802A02D003E0002010BD20F00100002948
:1002300000DA0020184310BD30B480EA010202F059
:10024000004530F0004221F0004013D090B1C30DC2
:10025000D40DC2F31601C0F31600E41A41F40001F4
:1002600040F400027D34914201D3641C00E0490057
:10027000002C02DA30BC002070474FF4000000234D
:10028000914201D3891A034340084FEA4101F7D153
:1002900051B1914202D14FF0004105E002D24FF03E
:1002A000010101E06FF0010103EBC450284430BCB0
:1002B00000F0DEBA2DE9FE4F804681EA0300C00F50
:1002C0000C46009021F0004123F00045B8EB0200FD
:1002D000A94105D24046214690461C460B4602469F
:1002E00023F00040104347D0270DC7F30A00C3F3A3
:1002F0000A510290401A019040286BDAC3F31300B0
:1003000040F4801B0098924620B10023D2EB030AF0
:1003100063EB0B0B01985946C0F14002504600F0C8
:1003200076FA06460D4650465946019A00F08EFA76
:1003300010EB08006141002487EA115284EAE77358
:100340001A4340D0009A62B3019A012A4FEA075239
:1003500015DC001B61EB02014FF0004202EA07527C
:10036000CDE90042001C41F5801132462B4600F0D9
:10037000F4FA03B0BDE8F08F40462146F9E7001BD0
:1003800061EB0201001C41F5801300185B4120184D
:10039000A2F5001747EB030140EAD570B6196D418D
:1003A00011E06D084FEA360645EAC0754FEA07527C
:1003B000001B61EB0201001C41F5801149084FEA66
:1003C00030000019514132462B4603B0BDE8F04FD2
:1003D00000F0B4BA0098012240000023D0EB0202E2
:1003E00063EBE073009821464FEAE074B8EB00003D
:1003F00061EB0401E9E783F000435BE781F0004132
:1004000058E72DE9FE4F81EA030404F0004421F08F
:10041000004100944FF0000B23F0004350EA010428
:100420005ED052EA03045BD0C3F30A54C1F30A5509
:100430002C44A4F2F3340194A0FB0254C1F3130141
:1004400041F48011C3F3130343F4801301FB02440E
:1004500000FB034E840A970A44EA815447EA835713
:10046000A4FB076802958D0A05FB07854FEA932CCC
:1004700004FB0C542705029D4FEA065847EA16373D
:10048000B5EB08056EEB070C870E920E47EA811755
:1004900042EA8312A7FB0201B6EB0B0164EB0004F6
:1004A0002B0D43EA0C335E1844EB1C50DA465146E0
:1004B000E7FB0201C5F313044FEA0B3343EA14537D
:1004C0004FEA0432019C43EA0603A4F10C040294AF
:1004D000009CCDE900B400F040FA03B0BDE8F08F15
:1004E00000200146F9E72DE9F04D81EA030404F00C
:1004F000004B21F0004514464FF0000A23F0004164
:1005000050EA050220D054EA01021DD0C5F30A5773
:100510000246C5F31303C1F31300C1F30A5640F4B6
:10052000801543F48013A7EB0608101BD64608F28B
:10053000FD3873EB050002D308F1010801E09218C1
:100540005B41B8F1000F03DA00200146BDE8F08DF1
:1005500000204FF48011064684460EE0171B73EB13
:10056000050705D3121B63EB050306434CEA010C98
:1005700049084FEA300092185B4150EA0107EDD17B
:1005800052EA030012D082EA040083EA050108431C
:1005900005D0101BAB4106D20122002306E0002249
:1005A0004FF0004302E06FF0010253101AEB060017
:1005B0004CEB085110EB0A0041EB0B01BDE8F04D8C
:1005C00000F0BCB9C10F80EAE0700844CA07962366
:1005D000002100F056B996230022114600F051B9CF
:1005E0000EB5C10F80EAE0700844CA07002140F24E
:1005F00033438DE80E000A460B4600F0AEF903B017
:1006000000BD00F0004220F00040C10DC0F3160014
:1006100040F400007F2901DA00207047962903DCAE
:10062000C1F19601C84001E096398840002AF4D013
:100630004042704720F00040C10DC0F3160040F466
:1006400000007F2901DA00207047962903DCC1F100
:100650009601C840704796398840704770B5C1F31D
:100660000A5201F000450024C1F3130140F2FF33A8
:1006700041F480119A4201DA002070BD40F2334308
:100680009A42A2F2334203DC524200F0CFF800E07B
:1006900090402C43F1D0404270BD00F0004230F059
:1006A00000400AD0C10D01F56071C0F3160042EAA6
:1006B0000151C208400711437047002001467047AE
:1006C00030B5041E71F1000404DB4FF000444042D9
:1006D00064EB0101141E73F1000405DB1C464FF0AE
:1006E0000043524263EB04038B4208BF824230BD99
:1006F00030B5041E71F1000404DB4FF000444042A9
:1007000064EB0101141E73F1000405DB1C464FF07D
:100710000043524263EB0403994208BF904230BD4C
:1007200001F0004330B421F0004150EA010206D04C
:100730000A0DA2F56072C1F31301002A02DC30BC7D
:1007400000207047440F44EAC104C100E01830BCE7
:1007500000EBC25000F08CB8002801DBC0F1004073
:10076000002901DBC1F1004181427047002801DB13
:10077000C0F10040002901DBC1F10041884270470F
:1007800030B50B46014600202022012409E021FA61
:1007900002F59D4205D303FA02F5491B04FA02F55E
:1007A0002844151EA2F10102F1DC30BD2DE9F05FF5
:1007B0000546002092469B468846064681464024D0
:1007C0001BE0284641464746224600F02FF8534694
:1007D0005A46C01A914110D311461846224600F0DD
:1007E00016F82D1A67EB01084F462246012000211A
:1007F00000F00DF817EB00094E41201EA4F1010492
:10080000DFDC484631462A464346BDE8F09F202AB1
:1008100004DB203A00FA02F1002070479140C2F157
:10082000200320FA03F3194390407047202A04DB89
:10083000203A21FA02F00021704721FA02F3D04059
:10084000C2F120029140084319467047202A06DB76
:10085000CB17203A41FA02F043EAE07306E041FA8E
:1008600002F3D040C2F1200291400843194670477C
:100870000029A8BF7047401C490008BF20F00100B4
:10088000704710B4B0FA80FC00FA0CF050EA010492
:1008900004BF10BC704749B1CCF1200421FA04F424
:1008A00011FA0CF118BF012121430843A3EB0C01FD
:1008B000CB1D4FEA00614FEA102042BF002010BC60
:1008C000704700EBC35010440029A4BF10BC704710
:1008D000401C490008BF20F0010010BC7047F0B474
:1008E000002802DCF0BC00207047C0F3C751C0F301
:1008F000160040F40000CA0701D14000491E3F2203
:1009000002EB6105002211464FF4000626FA01F3BE
:100910001344D418844201D8001B1A464000491CD5
:100920001729F3DD5100814202D24FF0FF3100E080
:10093000002102EBC550F0BCFFF79ABF10B5141EA2
:1009400073F1000408DA401C41F1000192185B4188
:100950001A4301D120F0010010BD2DE9F04D92465F
:100960009B4611B1B1FA81F202E0B0FA80F2203276
:100970009046FFF74CFF04460F4640EA0A0041EA62
:100980000B0153465A46084313D0114653EA01005F
:1009900019D0C8F140025046FFF748FF05460E4601
:1009A000504659464246FFF732FF084305D0012022
:1009B00004E020463946BDE8F08D0020054346EAB4
:1009C000E0762C4337430A986305E40AA0EB08005D
:1009D0000022FD0A44EA47540A3002D500200146AD
:1009E000E9E7010510196941DDE908450019694188
:1009F000BDE8F04DA2E7C1F30A52C1F3130140F282
:100A0000FF3341F480119A4202DA00200146704718
:100A100040F233439A42A2F2334202DC5242FFF7E1
:100A200005BFFFF7F4BE0000064C074D06E0E06886
:100A300040F0010394E8070098471034AC42F6D325
:100A4000FFF758FBE04E0008004F000800BFFEE72C
:100A50007047000070B504460F4800684FF47A7183
:100A6000B0FBF1F6304600F0E5FE002508E000BFDF
:100A70004FF0E020006900F480300028F8D06D1CB1
:100A8000A542F4D34FF0E020006920F001004FF0C0
:100A9000E021086170BD0000000000200FB47CB5AB
:100AA00004460A990898FFF795FB054609990798A7
:100AB000FFF790FB06462946FFF786FB0090DDE92D
:100AC0000801FFF787FB05460A990798FFF782FBA5
:100AD00006462946FFF726FB0190DDE90001C4E93F
:100AE00000017CBC5DF814FB2DE9F04F91B0044689
:100AF00000264FF480700E9040F2FF100D900025FC
:100B00001CE0B5420FDA04EBC60103C9CDE90601CA
:100B100004EBC60004EBC50206CA06C004EBC50020
:100B2000DDE9061206C00E9F04E0F61B384607EB0F
:100B3000D0714F10B742F8DD3E446D1C0D988542D0
:100B4000DFDB4FF400700F9001200C9002E00C9856
:100B5000401C0C900F9800EBD07149100F910129A7
:100B6000F5D188467BE0A8F10100022101FA00F9E5
:100B7000484609EBD0714FEA610A4FF07E500A9067
:100B800000200B905046FFF72BFD02460B46CDE9A7
:100B9000000136483649FFF7A6FCCDE9020101F015
:100BA0002DF8CDE90401FFF7BBFD08905046FFF793
:100BB00017FD02460B46CDE900012C482C49FFF7F2
:100BC00092FCCDE9020101F02DF881F00041CDE960
:100BD0000401FFF7A5FD099000263AE035462CE018
:100BE00005EB0A0B0B9804EBCB0C00900A9B06A8B4
:100BF000DCE90012FFF752FF54F835000699FFF7C1
:100C0000E3FA44F83B0004EBC50207995068FFF78C
:100C1000DBFA04EBCB01486054F835000699FFF786
:100C200081FA44F8350004EBC50207995068FFF7D4
:100C300079FA04EBC50148604D44B5F5007FCFDB80
:100C4000099800900AA8089BDDE90A12FFF726FF21
:100C5000761CAAF10100B042C0DA08F101080C9834
:100C6000804580DD11B0BDE8F08F0000182D4454A0
:100C7000FB2109402DE9F041024600250026002015
:100C800000230024002791F803C00CF00F0591F811
:100C900003C00CF0100CBCF1000F03D091F802C09F
:100CA0004CEA050591F800C0BCF1000F31D0146882
:100CB00000202BE04FF0010C0CFA00F3B1F800C05B
:100CC0000CEA03069E4220D183004FF00F0C0CFA71
:100CD00003F7BC4305FA03FC4CEA040491F803C093
:100CE000BCF1280F06D14FF0010C0CFA00FCC2F841
:100CF00014C00AE091F803C0BCF1480F05D14FF0D1
:100D0000010C0CFA00FCC2F810C0401C0828D1D31A
:100D10001460B1F800C0BCF1FF0F34DD546800204E
:100D20002EE000F1080C4FF0010808FA0CF3B1F8BE
:100D300000C00CEA03069E4221D183004FF00F0C45
:100D40000CFA03F7BC4305FA03FC4CEA040491F8DF
:100D500003C0BCF1280F05D100F1080C08FA0CF80B
:100D6000C2F8148091F803C0BCF1480F07D100F11C
:100D7000080C4FF0010808FA0CF8C2F81080401C6B
:100D80000828CED35460BDE8F08102460020936865
:100D90000B400BB1012000E000207047416170471B
:100DA0000161704700BFFEE710B5044694B1802191
:100DB0001448FFF7F5FF00F027F840211148FFF72E
:100DC000EFFF00F021F840210E48FFF7E7FF00F0A9
:100DD0001BF815E080210B48FFF7E0FF00F014F846
:100DE00040210848FFF7DCFF00F00EF840210548DD
:100DF000FFF7D4FF00F008F880210248FFF7D0FF8A
:100E000010BD0000000C0140062000BF011EA0F133
:100E10000102D0B2FAD1704708B50121082000F0D4
:100E200019FC14208DF803004020ADF800000320C9
:100E30008DF8020069460548FFF71CFF8020ADF8D9
:100E4000000069460148FFF715FF08BD000C01408E
:100E50002DE9F0410446884616461F4600F0D4F8B6
:100E6000E0B200F089F81A480078012802D1002089
:100E7000BDE8F08108F0FF0000F07EF8144800782B
:100E8000012801D10020F3E700F0BEF8611CC8B2D0
:100E900000F072F80E480078012801D10020E7E741
:100EA00000250FE000F046F806F8010B781EA84276
:100EB00003D10120FFF778FF02E00020FFF774FF65
:100EC000681C85B2BD42EDDB00F0B8F80120CFE729
:100ED0002800002070B504460D4600F095F8E0B2F9
:100EE00000F04AF812480078012801D1002070BDB6
:100EF000284600F041F80E480078012801D1002072
:100F0000F5E700F081F8611CC8B200F035F8084838
:100F10000078012801D10020E9E700F00BF806462F
:100F20000120FFF741FF00F089F83046DFE70000BD
:100F30002800002070B50024002516E06006040E8D
:100F400040210C48FFF72CFFFFF75EFF8021094886
:100F5000FFF71BFF08B1601CC4B240210548FFF732
:100F60001DFFFFF751FF681CC5B2082DE6DB2046C8
:100F700070BD0000000C014070B5044600251DE066
:100F800004F0800020B180211D48FFF709FF03E035
:100F900080211B48FFF702FFFFF736FF402118486A
:100FA000FFF7FEFEFFF730FF40211548FFF7F6FE82
:100FB000FFF72AFF6006040E681CC5B2082DDFDBB0
:100FC00080210F48FFF7ECFEFFF71EFF40210C4881
:100FD000FFF7E6FEFFF718FF80210948FFF7D5FE6F
:100FE00018B101200749087002E000200549087087
:100FF00040210348FFF7D2FEFFF706FF70BD000057
:10100000000C01402800002010B540210A48FFF7DD
:10101000C7FE80210848FFF7C3FEFFF7F5FE8021D9
:101020000548FFF7BBFEFFF7EFFE40210248FFF740
:10103000B5FEFFF7E9FE10BD000C014010B58021A0
:101040000748FFF7ABFE40210548FFF7A9FEFFF771
:10105000DBFE80210248FFF7A3FEFFF7D5FE10BD9F
:10106000000C014070B504460D461646FFF7CCFF54
:10107000E0B2FFF781FF0E480078012801D100207F
:1010800070BD2846FFF778FF09480078012801D194
:101090000020F5E73046FFF76FFF0548007801288C
:1010A00001D10020ECE7FFF7C9FF0120E8E70000CD
:1010B0002800002010B5C0220221AE20FFF7D2FF89
:1010C00000220321AE20FFF7CDFF00220421AE2035
:1010D000FFF7C8FF00220521AE20FFF7C3FF002263
:1010E0000621AE20FFF7BEFF0F220821AE20FFF73A
:1010F000B9FF03220921AE20FFF7B4FF27220A21FE
:10110000AE20FFF7AFFF32220C21AE20FFF7AAFF7F
:1011100032220D21AE20FFF7A5FF7F221021AE2045
:10112000FFF7A0FF10BD000008B50121082000F066
:1011300091FA04208DF80300C001ADF80000694663
:101140000148FFF797FD08BD000C014010B5402293
:101150000921AE20FFF786FF08B1012010BD002055
:10116000FCE700BFFEE7704702490143024A1160F5
:10117000704700000000FA050CED00E030B50024D7
:101180000CE0002506E00020074901EBC5010855E9
:10119000681CC5B2802DF6DB601CC4B2082CF0DBE5
:1011A00000F0DCF830BD00004C210020F0B5144602
:1011B00000267F2801DC3F2900DDF0BD0B46CF175C
:1011C00001EB5777FF10C7F10707FAB2CF1701EB12
:1011D0005777FF10A1EBC707FDB2C5F10707012341
:1011E000BB40DEB24CB10A4B03EBC0039B5C334304
:1011F000074F07EBC007BB5408E0054B03EBC003E8
:101200009B5CB343024F07EBC007BB5400BFD4E75E
:101210004C2100202DE9F04706460F46904699469E
:10122000DDF820A034460CE03D4606E05246294653
:101230002046FFF7BBFF681CC5B24D45F6DD601CBC
:10124000C4B24445F0DD00F089F8BDE8F087000045
:1012500008B50121042000F0FDF97C20ADF8000064
:1012600010208DF8030003208DF8020069463848ED
:10127000FFF700FD00203749086001203649C1F81A
:101280008C010021AE2000F045F90021D52000F0AE
:1012900041F90021502000F03DF90021A82000F084
:1012A00039F900213F2000F035F90021D32000F06A
:1012B00031F90021084600F02DF90021402000F00E
:1012C00029F900218D2000F025F90021142000F0DB
:1012D00021F90021202000F01DF90021022000F05A
:1012E00019F90021A12000F015F90021C02000F01B
:1012F00011F90021DA2000F00DF90021122000F090
:1013000009F90021812000F005F90021EF2000F00B
:1013100001F90021D92000F0FDF80021F12000F0B2
:10132000F9F80021DB2000F0F5F80021302000F072
:10133000F1F80021A42000F0EDF80021A62000F033
:10134000E9F80021AF2000F0E5F8FFF717FF08BD2E
:10135000000801408C0121420000214230B50024E8
:101360001CE004F1B001C8B2002100F0D3F8002164
:10137000084600F0CFF80021102000F0CBF800253F
:1013800008E0084901EBC501085D012100F0C2F841
:10139000681CC5B2802DF4DB601CC4B2082CE0DBF5
:1013A00030BD00004C2100202DE9F84F80460F464B
:1013B00016461C46BA462046E31704EB5373DB106F
:1013C00021464FEAE47C04EB5C7C4FEAEC0CA4EB96
:1013D000CC0CBCF1000F02D04FF0010C01E04FF03B
:1013E000000C6344224604EBD27C4FEA6C0C03FBF6
:1013F0000CF303F0FF0BA6F12000C6B200254EE06F
:101400000C2C07D106EB4600274901EB8000405D1C
:10141000009013E0102C05D1244800EB0610405D2D
:1014200000900BE0182C07D106EBC600204901EB19
:101430008000405D009001E0BDE8F88F4FF00009AA
:1014400027E0009800F0800028B1394640460A9A0B
:10145000FFF7ACFE09E00A9808B9012000E000207F
:10146000024639464046FFF7A1FE00984006000EAE
:101470000090781CC7B2A7EB0A00A04205D15746DE
:1014800008F1010000F0FF0806E009F1010000F09A
:10149000FF09B9F1080FD4DB00BF681CC5B25D4578
:1014A000AEDB00BFC8E70000A83400081C39000804
:1014B0000C3F0008F8B506460F4615461C4621E0CD
:1014C00004EBD4714910C1F18001B14202DA002667
:1014D0003819C7B2C4F14000B84204DA0020064609
:1014E0000746FFF74BFE012000902A782346394635
:1014F0003046FFF759FF204604EBD07106EB61013F
:10150000CEB26D1C28787E2802DC28782028D7DA15
:10151000F8BD000010B5144B19600023134CC4F83B
:101520008831002216E000230F4C241D236000F0B8
:1015300080031BB10123241D236003E000230A4C18
:10154000083423600123084C241D23604306180E31
:10155000531CDAB2082AE6DB0123034C083C236063
:10156000024CC4F8903110BD90012142000021428C
:1015700000B589B00121084600F05CF80121042083
:1015800000F068F818208DF823000120ADF8200045
:1015900003208DF8220008A91A48FFF76BFB4FF0D3
:1015A000804000F0AFF90020ADF81A00ADF8160049
:1015B00040F2F310ADF8180040F2CF20ADF814005F
:1015C00000208DF81C0005A94FF0804000F0F8F9CC
:1015D00001A800F0E9F96020ADF804000020ADF8A2
:1015E0000C000120ADF806000020ADF80A0001A9AA
:1015F0004FF0804000F08CF90121880700F076F967
:1016000009B000BD0008014010B500214FF0804036
:1016100000F06CF910BD10B50121880700F066F9E3
:1016200010BD10B5044621464FF0804000F0C6F9C9
:1016300010BD704729B1064AD2690243044BDA61F2
:1016400004E0034AD2698243014BDA61704700002B
:101650000010024029B1064A92690243044B9A6184
:1016600004E0034A92698243014B9A61704700008B
:101670000010024030B500210022002400232D4D2F
:101680006D6805F00C0121B1042905D0082923D18A
:1016900005E0294D056022E0274D05601FE0254D3E
:1016A0006D6805F47012234D6D6805F480340225D1
:1016B00005EB92421CB9214D554305600BE01D4DD1
:1016C0006D6805F400351DB11C4D5543056002E001
:1016D000194D5543056002E0174D056000BF00BF7E
:1016E000144D6D6805F0F0010909154D6B5C056836
:1016F000DD4045600F4D6D6805F4E061090A104D4D
:101700006B5C4568DD4085600A4D6D6805F460518D
:10171000C90A0B4D6B5C4568DD40C560054D6D68C1
:1017200005F44041890B074D6B5CC568B5FBF3F5CB
:10173000056130BD0010024000127A0000093D0032
:101740001400002024000020704710B500F002F8BB
:1017500010BD00000CB500200190009033480068D7
:1017600040F480303149086000BF3048006800F420
:10177000003000900198401C0190009818B9019821
:10178000B0F5A06FF1D12948006800F4003010B125
:101790000120009001E0002000900098012843D132
:1017A0002348006840F0100021490860084600689E
:1017B00020F0030008600846006840F0020008605E
:1017C0001A48406819494860084640684860084619
:1017D000406840F4806048600846406820F47C100F
:1017E00048600846406840F4E810486008460068D1
:1017F00040F08070086000BF0C48006800F0007086
:101800000028F9D00948406820F0030007494860E3
:101810000846406840F00200486000BF0348406846
:1018200000F00C000828F9D10CBD000000100240A7
:101830000020024030B50146B1F1807F01D3012084
:1018400030BD21F07F40401E4FF0E0225061501724
:101850000F22002807DA13071D0E094B00F00F04B2
:10186000241F1D5503E013071C0E064B1C5400BF1C
:1018700000204FF0E0229061072010610020DFE798
:1018800018ED00E000E400E07047000010B51348D8
:10189000006840F00100114908600846406810499E
:1018A00008400E494860084600680E4908400B4948
:1018B00008600846006820F48020086008464068F8
:1018C00020F4FE0048604FF41F008860FFF73DFFE2
:1018D0004FF000600449086010BD00000010024095
:1018E0000000FFF8FFFFF6FE08ED00E021B10288DE
:1018F00042F00102028004E002884FF6FE731A40B3
:101900000280704701894FF6F872114001817047DB
:1019100070B5002400220023058C4FF6FE7635407A
:101920000584028C8388048B4FF68F752C40B51E7E
:101930002C400D882C43751E2A400D892A434D8862
:101940002A43144DA8420BD0134DA84208D0134D82
:10195000A84205D0124DA84202D0124DA84213D180
:101960004FF6F7752A404D892A434FF6FB752A40FA
:101970008D882A434FF6FF652B404FF6FF552B40CD
:101980008D892B43CD892B4383800483CD88858625
:10199000028470BD002C0140003401400040014031
:1019A00000440140004801400021018041808180C5
:1019B000C180018141818181C181704781867047E9
:1019C000002202881D4B98420ED01D4B98420BD02E
:1019D000B0F1804F08D01B4B984205D01A4B98426B
:1019E00002D01A4B984204D14FF68F731A404B889D
:1019F0001A43174B984207D0164B984204D04FF623
:101A0000FF431A40CB881A4302808B8883850B885A
:101A100003850A4B98420BD0094B984208D00E4BD5
:101A2000984205D00D4B984202D00D4B984201D1FF
:101A30000B7A03860123838270470000002C01404B
:101A4000003401400004004000080040000C004049
:101A500000100040001400400040014000440140DC
:101A60000048014000B585B001210420FFF7F2FDD8
:101A700001218803FFF7EEFD18208DF813004FF4C5
:101A80000070ADF8100003208DF8120004A913486F
:101A9000FFF7F0F804208DF813000002ADF81000F5
:101AA00004A90E48FFF7E6F84FF4E130009000205B
:101AB000ADF80C000C20ADF80A000020ADF80800CD
:101AC000ADF80600ADF804006946054800F024F8BA
:101AD0000121034800F006F805B000BD00080140F0
:101AE0000038014021B1828942F40052828104E031
:101AF00082894DF6FF731A408281704702460020AA
:101B0000B1F5007F00D100BF13880B400BB101205D
:101B100000E00020704700002DE9F04786B0054640
:101B20000E460024A24600BFA1460027B08900B19E
:101B300000BF2F462C8A4CF6FF700440F088044307
:101B40002C82AC894EF6F3100440B08831890843EA
:101B5000718908430443AC81AC8A4FF6FF400440CE
:101B6000B0890443AC8201A8FFF784FD1F48874277
:101B700002D1DDF810A001E0DDF80CA0A88900F486
:101B8000004040B10AEBCA0000EB0A10316849007E
:101B9000B0FBF1F807E00AEBCA0000EB0A1031686D
:101BA0008900B0FBF1F86420B8FBF0F004012009D3
:101BB000642101FB1089A88900F4004040B1322063
:101BC00000EBC900B0FBF1F000F00700044308E0AF
:101BD000322000EB09106421B0FBF1F000F00F009F
:101BE00004432C8106B0BDE8F087000000380140B6
:101BF000C1F308028280704700BFFEE72DE9F04183
:101C000004460D46054A064B20462946FEF752FB80
:101C1000064600F007F8BDE8F0810000182D445496
:101C2000FB21F93F2DE9F04F93B004460D464FF0EC
:101C3000000B0022134620462946FEF741FD03D241
:101C40004FF0010B85F00045704A714B2046294644
:101C500001F032FA04460D466C4A6E4B2046294686
:101C6000FEF746FD0ED2BBF1000F01D1012000E0CE
:101C700000208346654A674B20462946FEF7BBFB9A
:101C800004460D46614A644B20462946FEF730FD66
:101C900007D25E4A5F4B20462946FEF7AFFB04465B
:101CA0000D465E4A5E4B20462946FEF71CFCCDE9F8
:101CB0000E01FEF7D3FC82465046FEF791FC574AD0
:101CC000574BCDE90C01FEF79CFB22462B46CDE994
:101CD0000E01FEF793FB06460F46504A514B304625
:101CE0003946FEF705FD09D20AF1010A4B4A4C4B71
:101CF00030463946FEF77FFB06460F464A4800EB62
:101D0000CA00D0E90089CAF16400474901EBC0006C
:101D100003C8CDE9100132463B4630463946FEF74E
:101D200070FB32463B46CDE90401FEF76AFB3246C2
:101D30003B46CDE90601FEF764FB42464B46CDE942
:101D40000801FEF75EFB0022384BCDE90A01FEF7E1
:101D5000CAFB32463B46CDE90E0130463946FEF716
:101D600050FB32463B46CDE90201FEF74AFBCDE986
:101D70000401DDE91023FEF744FB00222C4BCDE9E2
:101D80000601FEF7B0FB32463B46CDE90A0130467C
:101D90003946FEF736FB42464B46CDE90001FEF7D9
:101DA00030FB00224FF08043CDE90201FEF79BFBA0
:101DB000CDE9060130463946DDE91023FEF721FB67
:101DC00042464B46CDE90201FEF774FACDE9040123
:101DD000DDE90623FEF70FFBCDE90801DDE90A2363
:101DE000FEF709FBCDE90C01DDE90E23FEF762FAEF
:101DF00004460D46BBF1000F05D0204685F000419A
:101E000013B0BDE8F08F20462946F9E7182D445459
:101E1000FB211940FB210940FB21F93F1A271792AA
:101E2000BF15903FBF15803F80310008000038404B
:101E3000000018400FB4054B10B503A9044A0298DE
:101E400000F0F4F810BC5DF814FB00001D2F000832
:101E5000440000200FB4084B10B504A902AA03984F
:101E600000F0E4F8044602A9002000F076FC2046C9
:101E700010BC5DF814FB00005B27000802E008C8F6
:101E8000121F08C1002AFAD170477047002001E0F4
:101E900001C1121F002AFBD17047000001490860F0
:101EA00070470000480000202DE9FF5F82B000214C
:101EB000DDE90430020DDDF840B0034318D044F6EC
:101EC0001050A2F2FF3242431514119801281FD07E
:101ED000A5EB0B00401C5FEA000A4FF000064E4FD6
:101EE000DFF83891B046504615D5CAF1000413E02A
:101EF000119801244AA3012801D16FEA0B0102982D
:101F0000119AC0E90031C0E9024206B0BDE8F09F75
:101F1000CBF10000DFE704460021404A491842EBBC
:101F20000450CDE9001012E0E00707D032463B46EE
:101F300040464946FEF765FA8046894632463B46AA
:101F400010461946FEF75DFA06460F466410002C4F
:101F5000EAD1DDE90401DDE90023BAF1000F06DA78
:101F6000FEF74FFA42464B46FEF74BFA05E0FEF706
:101F7000BAFA42464B46FEF7B6FA04460E4600222F
:101F8000284BFEF7B5FB03D84FF0FF30014607E0C2
:101F90000022254B20463146FEF78CF9FEF72BFD3B
:101FA000102409E0002C0ADB0A220023FEF7FEFBC6
:101FB000039B30321A55641E50EA0102F2D1641CB0
:101FC000039AC4F111031444119A012A03D0012287
:101FD00008430DD10AE0084304D000204FF0110B54
:101FE000119072E7A3EB0B056D1E0DE05B4504DD60
:101FF0004FF0000205F1010504E003DA4FF00002A2
:10200000A5F10105002AECD002981199C0E902312E
:10201000C0E9004579E70000000014400000F03FEF
:10202000300000000000F0430000E03F2DE9FF4FCA
:1020300095B09B468946064600250FE2252877D1B4
:1020400000242746F84A0121059400E0044316F8CD
:10205000013F203B01FA03F01042F7D130782A28E3
:1020600011D06FF02F033078A0F13002092A16D872
:10207000059A44F0020402EB820203EB4202104490
:10208000761C0590EFE759F8042B0592002A03DA35
:10209000504244F40054059044F00204761C307819
:1020A0002E2816D116F8010F44F004042A280DD06A
:1020B0006FF02F023078A0F13003092B09D807EB1D
:1020C000870302EB4303C718761CF3E759F8047B38
:1020D000761C30786C280FD006DC4C2817D0682886
:1020E0000DD06A2814D104E0742810D07A280FD1BA
:1020F0000DE044F400140AE044F4801401E044F4D8
:1021000040147278824202D104F58014761C761C49
:10211000307866280BD013DC582877D009DC0028EB
:1021200075D04528F6D04628F4D047281AD19DE12D
:1021300018E0632835D0642879D0652812D195E15C
:10214000702873D008DC6728F1D069286FD06E281A
:102150000DD06F2806D1B5E073282CD0752875D026
:10216000782874D05A46179990476D1C75E1C4F3CE
:102170000250022809D003280DD0D9F800100428F5
:102180000DD00D6009F1040967E1D9F80010EA17D4
:10219000C1E90052F6E7D9F800100D80F2E70D70A2
:1021A000F0E719F8041B8DF8001000208DF80100ED
:1021B000EA46012003E059F804AB4FF0FF30610715
:1021C0004FF0000102D40DE008F101018846B94248
:1021D0000FDA8045F8DB1AF808100029F4D108E07E
:1021E00008F1010188468142FADB1AF8081000293B
:1021F000F6D105985B46A0EB080721463846179AAA
:1022000000F094FA284400EB080507E04DE029E1CE
:102210000DE01AF8010B5A4617999047B8F10108DA
:10222000F7D25B4621463846179A13E142E00A226C
:102230000092C4F302524FF0000A022A08D059F863
:1022400004CB032A4FEAEC710AD00DE029E02AE022
:1022500009F1070121F00702F2E802C1914609E005
:102260000FFA8CFC4FEAEC71042A03D14FFA8CFC74
:102270004FEAEC71002907DA0A460021DCF1000C74
:1022800061EB02012D2202E0220504D52B228DF8FC
:102290000420012203E0E20701D02022F7E7904664
:1022A00059E00A2102E010220DE010214FF0000A4F
:1022B00000910BE010224FF0000A44F004040827BC
:1022C000009203E008224FF0000A0092C4F3025289
:1022D000022A05D059F804CB0021032A08D009E0CE
:1022E00009F1070121F00702F2E802C1914605E079
:1022F0001FFA8CFC042A01D10CF0FF0C4FF00008EF
:10230000220728D5702806D0009B83F0100353EADB
:102310000A0305D00EE040228DF80420012208E0D7
:102320005CEA010206D030228DF804208DF8050009
:1023300002229046009B83F0080353EA0A030AD165
:102340005CEA010201D1620705D530228DF8042034
:102350004FF001087F1E582804D034A003900EA827
:1023600002900DE036A0F9E753466046009AFEF76A
:102370001DFA84460398825C0298401E0290027007
:102380005CEA0100F0D1029806A9081A00F1200ABF
:10239000600702D524F4803400E00127574502DDB0
:1023A000A7EB0A0000E0002000EB0A01009005986E
:1023B0004144401A0590E00306D45B462146179A33
:1023C000059800F0B3F90544002706E001A85A4635
:1023D000C05D179990476D1C7F1C4745F6DBE003F5
:1023E0000CD55B462146179A059800F09FF90544E5
:1023F00004E030205A46179990476D1C0099481EFA
:1024000000900029F5DC08E0029802995A4600780D
:10241000491C0291179990476D1CBAF10001AAF16D
:10242000010AF1DC65E10000092801003031323396
:102430003435363738396162636465660000000000
:1024400030313233343536373839414243444546EA
:102450000000000000F058F90544761C3078002890
:102460007FF4ECAD19B02846BDE8F08F620700D4C8
:10247000062709F1070222F0070CFCE80223E146D7
:1024800003F000485FEA080C02D00FF2702C0DE058
:102490005FEA045C02D50FF2682C07E05FEAC47CB7
:1024A00002D00FF2602C01E0AFF2700C4FF0FF3859
:1024B00023F00043CDF850C065280CD006DC452839
:1024C00009D046281DD047283DD13DE0662818D0C8
:1024D00067287ED138E00021112F01DB112000E0B8
:1024E000781CCDE9000106A90EA8FFF7DDFCDDE9A7
:1024F0000F010E9A03910021009207F1010A049145
:102500004DE04FF000400097CDE9011006A90EA85C
:10251000FFF7CAFCDDE90F0203920E9B119900221E
:10252000DDF80CA00093049211B9791C00EB010AAC
:10253000B7EB0A0004D4C0F1FF3007F1010A0490A0
:10254000AAEB0700019044E0012F00DA01270021E7
:10255000112F01DD112000E03846CDE9000106A968
:102560000EA8FFF7A1FCDDE90F010E9A03910021EF
:1025700004910092BA4621070CD40399514500DA20
:102580008A46BAF1010F05DD009AAAF10101515CFA
:10259000302908D0B84202DA10F1040F06DA01211E
:1025A000CDE9011015E0AAF10101E9E7002805DCF9
:1025B000049901440491AAEB000102E0411C514539
:1025C00000DD8A460499401A401C01904FF00040FB
:1025D0000290200704D40198504501DBCDF8048017
:1025E00000208DF84F0002980DF14F07B0F1004F19
:1025F00025D02B200E9002984FF0020800280CDA0C
:10260000404202902D200E9007E00A210298FEF72A
:10261000B7F83031029007F8011DB8F10001A8F1B8
:102620000108F2DC02980028EFD1791E0E9808709C
:10263000307800F0200040F0450007F8020D12A8A5
:10264000C01B00F107081498007800B1012000EBCE
:102650000A01019801EBE07105984144401A401EBF
:102660000590E00306D45B462146179A059800F0D2
:102670005DF805441498007818B15A4617999047A8
:102680006D1CE00324D55B462146179A059800F09F
:102690004DF805441CE00498002807DBDDE9030140
:1026A000884203DD0098405C179901E017993020BB
:1026B0005A469047049805F10105401C0490019882
:1026C000401E019004D12E205A46179990476D1C48
:1026D000BAF10001AAF1010ADDDC05E017F8010BEF
:1026E0005A46179990476D1CB8F10001A8F10108EE
:1026F000F4DC5B462146179A0598ABE62D000000F6
:102700002B000000200000002DE9F04104460025C8
:102710001E461746880404D405E039462020B047F9
:102720006D1C641EF9D52846BDE8F0812DE9F04105
:10273000044600251E469046C80301D5302700E018
:102740002027880404D505E041463846B0476D1C73
:10275000641EF9D52846BDE8F0810A68531C0B6059
:1027600010707047F0B59BB000F020FB00203F23B5
:102770007F2217210090FEF74DFD1421394800F00B
:102780005FFB0021384800F05BFB00F08BF8374816
:1027900000682E2803D1FEF737FF1BB0F0BD334988
:1027A0004868FDF77AFF0646314A324BFDF7A0FF35
:1027B00002D22F482F4903E02C494868FDF76DFFEE
:1027C0000446FDF7ADFF294948604868FDF719FF49
:1027D00004462648234628A1026802A8FFF73AFBD0
:1027E000102302AA00210846FEF764FEFEF7B6FD9C
:1027F0001E48006850281EDDFEF70DFF002406E08D
:10280000A0B2FEF70EFF0A20FEF724F9641C642C28
:10281000F6DD002408E0C4F1640188B2FEF701FF90
:102820000A20FEF717F9641C642CF4DD4FF47A706B
:10283000FEF710F901E0FEF7E7FE0C48016812A070
:10284000FFF7F8FA0A20FEF705F908494868FDF78E
:1028500024FF044622460B460EA0FFF7EBFA00BF0A
:102860009BE700004C000020CC1000203C00002022
:102870008FC2F5285CFF584048523A2564205370B7
:102880004F323A2564200000D6B8C1EED0C4C2CA87
:1028900025336400D6B8C1EED1AAD1F525302E3249
:1028A000660000002DE9F04F91B00026B1460020EF
:1028B0000F900E9000240FE0FE4850F83410304680
:1028C000FDF730FC0646FC4850F834104846FDF74A
:1028D00029FC8146601C84B2B4F5007FECDB4FF02C
:1028E00088413046FDF7A8FC06464FF0884148462F
:1028F000FDF7A2FC8146002413E0EE4951F83400B4
:102900003146FDF761FCEB4941F83400EA4951F8E2
:1029100034004946FDF758FCE74941F83400601C93
:1029200084B2B4F5007FE8DBE448FFF783FA0124C2
:102930004FE0E04850F834104FF08040FDF74AFC7B
:102940008046601EDB4A52F830104046FDF7EAFB35
:102950000746D84A601C52F830103846FDF7E2FBB3
:1029600010901098FDF799FE0022D54BCDE90A0191
:10297000FDF7B9FD0746FDF7D3FECE4941F8340017
:10298000CD4850F834104FF08040FDF723FC8046CE
:10299000601EC94A52F830104046FDF7C3FB074697
:1029A000C54A601C52F830103846FDF7BBFB10904A
:1029B0001098FDF772FE0022C14BCDE90A01FDF728
:1029C00092FD0746FDF7ACFEBB4941F83400601CA0
:1029D00084B2B4F5FF7FACDD00249EE0B54B621CF1
:1029E00053F832101A4652F83400FDF79BFBB14AF7
:1029F0000890A01C52F830100898FDF793FBAD4AE0
:102A00000990E01C52F830100998FDF78BFBA94A99
:102A10000A90201D52F830100A98FDF783FBA54A52
:102A20000B90601D52F830100B98FDF77BFB804631
:102A3000A04AA01D52F830104046FDF773FB074630
:102A40009C4AE01D52F830103846FDF76BFB1090A1
:102A50001098FDF722FE00229A4BCDE90A01FDF7FE
:102A600042FD0746FDF75CFE924941F83400924B67
:102A7000621C53F832101A4652F83400FDF752FB2C
:102A80008D4A0890A01C52F830100898FDF74AFBB8
:102A90008046894AE01C52F830104046FDF742FB60
:102AA000854A0990201D52F830100998FDF73AFB2D
:102AB000814A0A90601D52F830100A98FDF732FBE7
:102AC00007467D4AA01D52F830103846FDF72AFB14
:102AD000794A0B90E01D52F830100B98FDF722FB5D
:102AE00010901098FDF7D9FD0022764BCDE90A0130
:102AF000FDF7F9FC0746FDF713FE6F4941F8340076
:102B00006C4951F83400FDF7C8FD07463A460B46BC
:102B10006DA0FFF78FF9601C84B2B4F5FC7FFFF65F
:102B20005DAF6B48FFF786F900240CE0624951F86D
:102B30003400FDF7B2FD07463A460B4662A0FFF7A8
:102B400079F9601C84B2B4F5007FEFDB6148FFF7D0
:102B500071F90020604908805648FDF7C5FF5648C6
:102B6000FDF7C2FF5D48FFF765F9002439E0514ADF
:102B700002EBC40251684F4A02EBC4025068FDF7F1
:102B800029FB80464B4A52F8341052F83400FDF7C6
:102B900021FB41460B90FDF7C5FA074600F0D8FA35
:102BA000444941F83400444A02EBC4025168424AA5
:102BB00002EBC4025068FDF70DFB80463E4A52F816
:102BC000341052F83400FDF705FB41460B90FDF739
:102BD000A9FA074600F0BCFA364941F83400601CF7
:102BE00084B2B4F5007FC2DB01240FE0314850F815
:102BF00034100F98FDF796FA0F902F4850F83410C4
:102C00000E98FDF78FFA0E90601C84B2B4F5007F29
:102C1000ECDB00240CE0274951F83400FDF73DFDC2
:102C200007463A460B4628A0FFF704F9601C84B219
:102C3000FF2CF0DD2A48FFF7FDF800240CE01E49C8
:102C400051F83400FDF729FD07463A460B461EA011
:102C5000FFF7F0F8601C84B2FF2CF0DD2148FFF78D
:102C6000E9F81E21134800F03FF90D901E2112488B
:102C700000F03AF90C901CA00D99FFF7DBF81AA0B0
:102C80000C99FFF7D7F80D98FDF7AAFC074600222C
:102C9000174BFDF7B6FB00224FF08143CDE906014B
:102CA000FDF721FC0022134BCDE90801FDF7A9FB3C
:102CB00022E000004C000020CC100020844E0008D0
:102CC000000010400000204025660D0A00000000B2
:102CD000204E00085C4D000830000020E84C000841
:102CE000C44D0008684C000825640D0A000000006F
:102CF0000000594000004E40CDE90A01FDF710FDEB
:102D000082465046FDF77DFC2149086049460F98F0
:102D1000FDF760FA074631460E98FDF75BFA8046EC
:102D20003946FDF789FA83465846FDF7B6FC074653
:102D3000184A194BFDF765FBCDE906015846FDF72A
:102D4000ACFCCDE902015846FDF7A7FC134A144B31
:102D5000CDE90001FDF755FB0746DDE90223FDF74C
:102D600050FBCDE90401DDE90623FDF7A3FA0D4A86
:102D70000D4BCDE90801FDF79DFACDE90A01FDF7FC
:102D8000CFFC054602494D6011B0BDE8F08F000050
:102D90003C000020B4C876BE9F5A3E4048E17A14F9
:102DA000AE8746C0AE47E17A14B6574010B5002052
:102DB0001D49088031E029E000F0F2F81A48008847
:102DC000B0F5007F22DA19480088FDF704FC1849A5
:102DD000154A128841F832000020134A128801EB8C
:102DE000C201486013480088FDF7F5FB12490E4AFE
:102DF000128841F8320000200B4A128801EBC20110
:102E0000486009480088401C074908804FF4007159
:102E10000A48FDF7BAFF0028CED003480088B0F575
:102E2000007FC8DB10BD0000300000202A00002019
:102E30004C0000202C000020CC100020000C014091
:102E40002DE9F05F054688464FF000094FF48027D2
:102E500000241DE04846FDF7BEFB834655F83410BC
:102E6000FDF77AFC04D255F83400FDF7E3FB814608
:102E70003846FDF7B0FB834655F83410FDF776FC75
:102E800004D255F83400FDF7D5FB0746601C84B228
:102E9000FF2CDFDDA9EB07001421B0FBF1FA0024C1
:102EA0001EE0012202EB440255F83210620055F890
:102EB0003200FDF737F98346FDF7BCFB064676087E
:102EC000F61BB6FBFAF6142E00D91426C8F13F0201
:102ED000921BD1B2E0B20122FEF768F9601C84B205
:102EE000802CDEDBBDE8F09F2DE9F04105460E4663
:102EF0000424274655F8348000BF09E055F8341003
:102F00004046FDF729FC02D255F834802746641C60
:102F1000B442F3DB3846BDE8F081000070B50446EA
:102F20000D46E1B20548FEF763FE00BF802103486D
:102F3000FEF7E4FD0028F9D0204670BD00380140BE
:102F4000FEF790FD4FF4A060FEF70EF9FDF764FF69
:102F5000FEF70EFBFEF77CF90DA0FEF76BFFFEF708
:102F6000E3F8FEF7F3F8FEF7A5F800240AE001E025
:102F700000F016F84FF400710848FDF706FF00282E
:102F8000F6D0641C802CF2DB01E0FFF7EBFBFCE7E2
:102F90004F4C45445F496E69740D0A00000C0140B6
:102FA0001CB500202F4908802F4908800021AE2041
:102FB000FDF790FF0121AE20FDF78CFF07208DF873
:102FC000000006236A460721AE20FDF741FF9DF869
:102FD00000404FF6FF7000EA843422480088204405
:102FE000204908809DF801404FF6FF7000EA8414E4
:102FF00008460088204408809DF80240A410084636
:103000000088204408809DF803404FF6FF7000EAD6
:103010008434154800882044134908809DF80440F2
:103020004FF6FF7000EA84140846008820440880A8
:103030009DF80540A41008460088204408800846F2
:10304000008842F21071884202DC002006490880A4
:103050000448008842F21071884202DC00200149D5
:1030600008801CBD2A0000202C0000202DE9FC4116
:1030700004460D46CDE90045019800F0004080B1BE
:1030800020462946FDF7EAFA8046FDF79BFA0746F7
:103090004FF07E51FDF798F80646FDF7FEFABDE8C1
:1030A000FC8120462946FDF7D9FA0746FDF78AFA42
:1030B0000646FDF7F2FAF2E72DE9FC5F06460F46F9
:1030C00014461D460022134620462946FDF7F8FA0D
:1030D00003D100200146BDE8FC9F22462B46304626
:1030E0003946FDF700FA8246FFF7C0FFCDE900013F
:1030F00022462B46DDE90001FDF783F98246324680
:103100003B46FDF77BF98046894600221346304650
:103110003946FDF7D5FA02D24FF0010A01E04FF02F
:10312000000A0022134620462946FDF7C9FA01D2BB
:10313000012000E00020824507D022462B46404671
:103140004946FDF758F98046894640464946C2E758
:1031500070B50546FDF7C3FB044620F00040C0F102
:10316000FF40C00F08D025F00040C0F1FF40C00F65
:1031700004BF0120FEF792FE204670BD0000000053
:1031800000000000000000006F0EA6389415903F6C
:103190006058F72D1215A03FAB047532561EA83F9C
:1031A0007993E01B0A13B03F498E3932E515B43FDD
:1031B000F017FC7F7B17B83FDA97623D8C17BC3F56
:1031C000E05BA15DEB0AC03FE9AA91330D09C23F64
:1031D0007553A8670B06C43F6C2377D3C501C63F60
:1031E000797A03651CFCC73FA3DDCC20EFF4C93F0F
:1031F0006A1FD2231EECCB3FCCFB94A589E1CD3FC7
:1032000096071CFA11D5CF3F4769F9C94BE3D03F68
:103210000E0E1483FDDAD13F1FFD24838ED1D23FE1
:103220004FE92F37EFC6D33FFB02711F10BBD43FCE
:10323000DD9657D0E1ADD53F4B667FF3549FD63F27
:1032400019A9A8485A8FD73F63A9AEA6E27DD83FF7
:10325000C2E97CFCDE6AD93F63C602524056DA3FBF
:103260009D8125C9F73FDB3FC3ACB09EF627DC3F0D
:1032700001DE442B2E0EDD3F1FA444E48FF2DD3F20
:1032800052A9BF5C0DD5DE3F24F65B4698B5DF3F03
:10329000E4A21E39114AE03F9C2EF5E84EB8E03F0B
:1032A000512B183C7E25E13F5CE9014D9891E13FAF
:1032B000EA00B04796FCE13F57BB116A7166E23FF6
:1032C0005E5A750423CFE23F4136F479A436E33FDA
:1032D0000BACDD40EF9CE33F2AD520E3FC01E43F4B
:1032E000BC01B5FEC665E43FEFEE004647C8E43FCB
:1032F000ECB240807729E53FF057EA895189E53FF4
:1033000014201155CFE7E53FA66BC7E9EA44E63F35
:10331000CD3B7F669EA0E63F664B6900E4FAE63F40
:1033200016B8D203B653E73FA53581D40EABE73FBD
:10333000DCC50DEEE800E83F14EF3DE43E55E83F04
:10334000EA6B5B630BA8E83F844E8A3049F9E83F9B
:10335000F2911D2AF348E93F5714EA470497E93FE1
:10336000A8F4979B77E3E93FC94EF250482EEA3F15
:10337000095135AE7177EA3F17A65A14EFBEEA3FFE
:10338000862E64FFBB04EB3F4005A506D448EB3F07
:103390003CCA08DD328BEB3FF72E5951D4CBEB3FC3
:1033A0005AC0814EB40AEC3FA7E9D1DBCE47EC3FCF
:1033B0006C2C3D1D2083EC3F45899953A4BCEC3F08
:1033C0008C15DCDC57F4EC3F31BA5334372AED3F2F
:1033D000ED17E2F23E5EED3F468D32CF6B90ED3F52
:1033E000E55AEF9DBAC0ED3FE3E2F45128EFED3F1F
:1033F000D8FF82FCB11BEE3F7E706CCD5446EE3F91
:10340000FF5444130E6FEE3FF5BA893BDB95EE3F58
:103410007235D1D2B9BAEE3F667EEC84A7DDEE3FBD
:10342000E01E101DA2FEEE3FCF1BF785A71DEF3F4C
:10343000F8A404CAB53AEF3F14C46313CB55EF3F69
:10344000FF0925ACE56EEF3F21385AFE0386EF3FBA
:103450005CE42F94249BEF3FD015051846AEEF3F58
:1034600003D9805467BFEF3F03CAA53487CEEF3F2F
:103470005C93E3C3A4DBEF3FAF60262EBFE6EF3FD4
:10348000FE43E4BFD5EFEF3FD38C28E6E7F6EF3FEE
:1034900086109D2EF5FBEF3F12639147FDFEEF3F37
:1034A000000000000000F03F0000000000000000ED
:1034B00000000000000000003F400000000000008D
:1034C00000003000400030004000000009000BC048
:1034D0003D000BC03D00090018C024407FE02240A1
:1034E00031800000180024C01B000D803240018094
:1034F00003801C4027401C800740004010006000F3
:1035000000000000000000000000000000001F801C
:10351000204040200000402020401F80000000008C
:10352000090006001F8006000900000004000400D6
:103530003F80040004000000001000600000000054
:103540000000000004000400040004000400000067
:10355000000000400000000000000000002001C04A
:1035600006003800400000001F802040204020401E
:103570001F800000000010403FC00040000000001D
:1035800018C02140224024401840000010802040F4
:10359000244024401B80000002000D0011003FC0A9
:1035A000014000003C80244024402440238000004F
:1035B0001F8024402440344003800000300020005D
:1035C00027C03800200000001B80244024402440F5
:1035D0001B8000001C0022C0224022401F800000EF
:1035E0000000000008400000000000000000000093
:1035F0000460000000000000000004000A00110048
:10360000208040400900090009000900090000006D
:1036100000004040208011000A0004001800200033
:1036200023402400180000001F802040274029402C
:103630001F400000004007C039000F0001C00040DB
:1036400020403FC0244024401B8000001F802040B9
:10365000204020403080000020403FC020402040DB
:103660001F80000020403FC024402E4030C000009A
:1036700020403FC024402E00300000000F0010808A
:10368000204022403380020020403FC0040004005C
:103690003FC02040204020403FC02040204000004C
:1036A0000060202020203FC02000200020403FC09C
:1036B00024400B0030C0204020403FC0204000404C
:1036C000004000C03FC03C0003C03C003FC00000C1
:1036D00020403FC00C4023003FC020001F802040FE
:1036E000204020401F80000020403FC02440240094
:1036F000180000001F802140214020E01FA0000092
:1037000020403FC02440260019C0004018C024407B
:103710002440224031800000300020403FC0204043
:103720003000000020003F80004000403F8020002B
:1037300020003E0001C0070038002000380007C00C
:103740003C0007C038000000204039C0060039C0E6
:10375000204000002000384007C038402000000012
:10376000304021C02640384020C00000000000004A
:103770007FE0402040200000000070000C0003802B
:10378000004000000000402040207FE000000000DA
:103790000000200040002000000000000010001089
:1037A0000010001000100010000000004000000099
:1037B00000000000000002800540054003C00040FA
:1037C00020003FC00440044003800000000003804C
:1037D00004400440064000000000038004402440F0
:1037E0003FC000400000038005400540034000004A
:1037F000000004401FC0244024402000000002E0DC
:10380000055005500650042020403FC004400400ED
:1038100003C000400000044027C00040000000003A
:1038200000100010041027E00000000020403FC0FE
:103830000140070004C00440204020403FC0004039
:103840000040000007C0040007C0040003C00000DF
:10385000044007C00440040003C00040000003808F
:103860000440044003800000041007F004500440AA
:1038700003800000000003800440045007F00010A3
:10388000044007C00240040004000000000006409D
:103890000540054004C00000000004001F800440F3
:1038A00000400000040007800040044007C00040C2
:1038B0000400070004C0018006000400060001C0E7
:1038C000070001C006000000044006C0010006C059
:1038D000044000000410071004E00180060004000A
:1038E0000000044005C00640044000000000000045
:1038F00004007BE040200000000000000000FFF01A
:1039000000000000000040207BE0040000000000F8
:103910004000800040002000200040000000000027
:103920000000000000000000000000000000000097
:1039300000001FCC000C0000000000000000080088
:10394000300060000800300060000000022003FC2E
:103950001E20022003FC1E200220000000000E1882
:1039600011043FFF10840C78000000000F00108449
:103970000F3800C0077818840078000000780F84A2
:1039800010C411240E9800E40084000808006800A8
:1039900070000000000000000000000000000000B7
:1039A000000007E018182004400200000000400258
:1039B0002004181807E00000000000000240024048
:1039C00001800FF001800240024000000080008072
:1039D00000800FF800800080008000000001000DD2
:1039E000000E000000000000000000000000008049
:1039F0000080008000800080008000800000000CBB
:103A0000000C0000000000000000000000000006A4
:103A1000001800600180060018002000000007F078
:103A2000080810041004080807F00000000008044B
:103A300008041FFC000400040000000000000E0C3D
:103A400010141024104411840E0C000000000C18F7
:103A500010041104110412880C700000000000E032
:103A60000320042408241FFC0024000000001F98E9
:103A7000108411041104108810700000000007F079
:103A800008881104110418880070000000001C0050
:103A9000100010FC13001C001000000000000E3885
:103AA00011441084108411440E38000000000700F7
:103AB000088C10441044088807F000000000000043
:103AC0000000030C030C00000000000000000000D8
:103AD000000101060000000000000000000000805E
:103AE00001400220041008081004000002200220F7
:103AF0000220022002200220022000000000100408
:103B000008080410022001400080000000000E00A0
:103B10001200100C106C10800F00000003E00C1855
:103B200013E4142417C4082807D000000004003C44
:103B300003C41C40074000E4001C000410041FFCE8
:103B40001104110411040E880070000003E00C1829
:103B500010041004100410081C10000010041FFCB6
:103B6000100410041004080807F0000010041FFCE3
:103B70001104110417C410040818000010041FFCDD
:103B80001104110017C010000800000003E00C1819
:103B90001004100410441C780040000010041FFCA6
:103BA00010840080008010841FFC100400001004AA
:103BB00010041FFC100410040000000000030001AA
:103BC000100110011FFE10001000000010041FFC67
:103BD000110403801464181C1004000010041FFC5E
:103BE0001004000400040004000C000010041FFC7A
:103BF0001F0000FC1F001FFC1004000010041FFC2D
:103C00000C04030000E010181FFC100007F0080867
:103C1000100410041004080807F0000010041FFC32
:103C200010841080108010800F00000007F008182A
:103C300010241024101C080A07F2000010041FFCB6
:103C40001104110011C011300E0C000400000E1CF4
:103C500011041084108410441C3800001800100057
:103C600010041FFC100410001800000010001FF8C2
:103C700010040004000410041FF8100010001E00BF
:103C800011E0001C007013801C0010001FC0103CCD
:103C900000E01F0000E0103C1FC000001004180CE2
:103CA000163401C001C01634180C100410001C009A
:103CB000130400FC13041C00100000000804101C76
:103CC0001064108413041C0410180000000000008D
:103CD00000007FFE40024002400200000000300071
:103CE0000C0003800060001C000300000000400284
:103CF000400240027FFE00000000000000000000C3
:103D000020004000400040002000000000010001B1
:103D1000000100010001000100010001000040005D
:103D2000400020000000000000000000000000989B
:103D3000012401440144014400FC000410001FFC64
:103D40000088010401040088007000000000007079
:103D500000880104010401040088000000000070D4
:103D600000880104010411081FFC0004000000F891
:103D7000014401440144014400C800000000010462
:103D800001040FFC1104110411001800000000D6FA
:103D900001290129012901C90106000010041FFCA5
:103DA000008401000100010400FC00040000010483
:103DB000190419FC000400040000000000000003C6
:103DC00000010101190119FE0000000010041FFC90
:103DD0000024004001B4010C0104000000001004A4
:103DE00010041FFC0004000400000000010401FC9A
:103DF0000104010001FC0104010000FC010401FCBC
:103E0000008401000100010400FC0004000000F82F
:103E1000010401040104010400F80000010101FF94
:103E2000008501040104008800700000000000709B
:103E3000008801040104010501FF000101040104DF
:103E400001FC00840104010001800000000000CC9E
:103E50000124012401240124019800000000010034
:103E6000010007F80104010400000000010001F84E
:103E7000000400040004010801FC000401000180AA
:103E80000170000C001001600180010001F0010CC4
:103E9000003001C00030010C01F0010000000104FD
:103EA000018C00740170018C01040000010101818A
:103EB0000171000E00180160018001000000018402
:103EC000010C013401440184010C000000000000D9
:103ED0000000000001003EFC400240020000000023
:103EE00000000000FFFF0000000000000000400292
:103EF00040023EFC010000000000000000006000E5
:103F000080008000400040002000200000000000F1
:103F100000000000000000000000000000000000A1
:103F20000000000000000000000000000000000091
:103F30000000000000000000000000000000000F72
:103F400080380FFE380F80380000000000000000AD
:103F5000000000000000000000000100000600005A
:103F60000C00003800003100000600000C00003892
:103F700000003000000000000000000061800067C9
:103F8000F807F98000618000618000618000618035
:103F90000067F807F9800061800000000000000061
:103FA000000001C0E003E0F00630080418081FFF1D
:103FB000FE040E080787F00381E000000000000007
:103FC00001F000060C00040408060C7001F9C000A2
:103FD0000E00003BE000EC18070808040C18000372
:103FE000E00000000001E00007F003F818041C08DE
:103FF00004170807E1D003C0E00023B0003C08002C
:104000002008000010000000000000010000310046
:10401000003200001C000000000000000000000052
:104020000000000000000000000000000000000090
:104030000000000000000000000000007F0001FF01
:10404000C00780F00C0018100004200002000000DF
:104050000000002000021000040C00180780F0018E
:10406000FFC0007F00000000000000000000000012
:104070000000000000000000420000660000660032
:10408000003C0000180003FFC0001800003C0000C6
:104090006600006600004200000000000800000802
:1040A0000000080000080000080001FFC000080030
:1040B00000080000080000080000080000000000E0
:1040C000000100003100003200001C000000000070
:1040D00000000000000000000000000000000000E0
:1040E00000000000080000080000080000080000B0
:1040F0000800000800000800000800000800000890
:10410000000000000000000000000000380000383F
:104110000000380000000000000000000000000067
:104120000000000000000000000000000006000089
:104130001C000070000180000E0000380000C0006C
:104140000700001C0000300000000000000000001C
:104150007F8001FFE003807006001804000804005F
:104160000806001803807001FFE0007F8000000057
:104170000000000000000100080100080100080321
:10418000FFF807FFF8000008000008000008000022
:104190000000000000000001C03802C05804009870
:1041A000040118040218040418061C1803F8180166
:1041B000E0F800000000000000000001C0E003C0C3
:1041C000F004000804080804080806180803F41896
:1041D00001E7F00001E00000000000000000000026
:1041E0000300000D000011000061000081080301C0
:1041F0000807FFF80FFFF8000108000108000000A1
:104200000000000000E007FCD006080806100806C1
:104210001008061008061838060FF00607C0000040
:1042200000000000000000003F8001FFE003843038
:1042300002081804100804100804100807181003D6
:104240000FF00007C000000000000000000003C0E5
:10425000000700000600000600F80607F806180030
:1042600006E000070000060000000000000000015A
:10427000E1E003F7F0063410041808041808040CF1
:1042800008040C0806161803F3F001C1E000000052
:1042900000000000F80003FC3003063804020804A4
:1042A00002080402080404100308F001FFC0007FA4
:1042B00000000000000000000000000000000000FE
:1042C00000000000703800703800703800000000F6
:1042D00000000000000000000000000000000000DE
:1042E0000000000000000000301A00301C00000038
:1042F00000000000000000000000000000000000BE
:1043000000000008000014000022000041000080AE
:104310008001004002002004001008000800000096
:104320000000000021000021000021000021000009
:1043300021000021000021000021000021000021B7
:104340000000000000000000000008000804001049
:104350000200200100400080800041000022000097
:10436000140000080000000000000003C00004C0AA
:1043700000040000080038080F380808380810004A
:104380000C300007E00003C0000000000000000047
:104390003F8000FFE0038070020F1006708804C0A9
:1043A00088048308047F8802C09003012000FE4037
:1043B0000000080000180001F8003E0801C20007D4
:1043C000020007E20000FE00001FC80001F8000024
:1043D0003800000804000807FFF807FFF804080881
:1043E00004080804080804080806180803F418015B
:1043F000E7F00001E0000000000000003F8001FF46
:10440000E00380700200180400080400080400089B
:104410000400100600200780C00000000400080708
:10442000FFF807FFF804000804000804000804006F
:104430001802001003807001FFE0007F8000000080
:1044400004000807FFF807FFF80408080408080438
:104450000808040808043E080400080600180100C3
:104460006000000004000807FFF807FFF8040808D0
:10447000040800040800040800043E0006000006CA
:104480000000018000000000000000003F8001FFEC
:10449000E003807006001804000804020804020803
:1044A0000203F00783F00002000002000400080786
:1044B000FFF807FFF80408080008000008000008DB
:1044C0000000080004080807FFF807FFF8040008C8
:1044D00000000000000004000804000804000807B1
:1044E000FFF807FFF80400080400080400080000B3
:1044F00000000000000000000006000007000001AE
:1045000004000104000104000307FFFE07FFFC0490
:10451000000004000004000004000807FFF807FF83
:10452000F8040C08001800003E0004C7800503C80A
:104530000600F8040038040018000008040008070A
:10454000FFF807FFF804000800000800000800005A
:1045500008000008000008000018000060000000CB
:1045600004000807FFF807800807FC00007FC00070
:1045700003F80007C000780007800807FFF807FF6E
:10458000F804000804000807FFF807000803C0004B
:1045900000E000003800001E000007000001C00419
:1045A00000F007FFF8040000000000007F8001FF1A
:1045B000E0038070060018040008040008060018D4
:1045C00003003001FFE0007F8000000004000807C6
:1045D000FFF807FFF80404080404000404000404BE
:1045E00000040400060C0003F80001F000000000C5
:1045F000000000007F8001FFE00380700600880457
:1046000000880400C806003C03003E01FFE6007F6E
:104610008400000004000807FFF807FFF8040808FA
:10462000040800040C00040F00040BC00610F00383
:10463000F03801E00800000800000001E0F803F095
:1046400030063010041808041808040C08040C087C
:104650000206180207F00781E00000000180000652
:10466000000004000004000004000807FFF807FF32
:10467000F8040008040000040000060000018000A7
:1046800004000007FFE007FFF00400180000080026
:10469000000800000800000800000804001007FFE0
:1046A000E004000004000006000007E00007FE0030
:1046B000041FE00001F80000380001E0043E00079C
:1046C000C00006000004000004000007E00007FF2F
:1046D000C0041FF80007C007F80007FF80043FF878
:1046E0000007C004F80007000004000000000004F8
:1046F000000806001807C07805F1C8003E00001F3A
:10470000800463E80780F806001804000800000031
:1047100004000006000007800007E008047C080091
:104720001FF80007F800180804E00807000006005A
:10473000000400000000000100080600380400F832
:104740000403E8040F08047C0805F00807C0080704
:1047500000180400600000000000000000000000DD
:10476000000000000000003FFFFE200002200002C9
:1047700020000220000220000200000000000000D3
:10478000000008000007000000C00000380000061C
:10479000000001C000003000000E00000100000019
:1047A0000000000000002000022000022000022083
:1047B00000022000023FFFFE000000000000000099
:1047C00000000000000000000000000000080000E1
:1047D0001000003000002000003000001000000831
:1047E00000000000000000000000010000010000C7
:1047F00001000001000001000001000001000001B3
:1048000000000100000100000100000100000000A4
:104810000000000000200000200000100000100038
:104820000000000000000000000000000000000088
:104830000000000000F00019F8001B18002208001A
:104840002608002408002410003FF8001FF800008C
:104850000800001800000004000007FFF80FFFF038
:104860000018180010080020080020080030180068
:104870001FF0000FC00000000000000007C0001F74
:10488000F0001830002008002008002008003C0834
:10489000001C10000060000000000000000000008C
:1048A00007C0001FF0003818002008002008002072
:1048B0000804101007FFF80FFFF0000010000000C0
:1048C0000000000000000007C0001FF000123000D0
:1048D0002218002208002208003208001E10000ED4
:1048E0002000000000000000200000200800200838
:1048F00001FFF803FFF80620080420080420080739
:10490000200003000000000000000000000E000E68
:104910006E001FF30031B10020B10020B1003191D1
:10492000001F13002E1E00200E00300000000004A7
:10493000000807FFF80FFFF8001008002000002013
:1049400000002008003FF8001FF8000008000000E9
:1049500000000000000000200800200800200806D9
:104960003FF8063FF80000080000080000080000BB
:104970000000000000000000000000000300000331
:10498000002001002001002003063FFE063FFC003E
:10499000000000000000000000000004000807FF05
:1049A000F80FFFF8000188000300002FC00038F85E
:1049B000002038002008000008000000000000006F
:1049C000000004000804000804000807FFF80FFFB7
:1049D000F8000008000008000008000000000000C7
:1049E000002008003FF8003FF800100800200000F9
:1049F0003FF8003FF8001008002000003FF8003F9B
:104A0000F8000008000000002008003FF8003FF810
:104A1000001008001000002000002008003FF800EF
:104A20001FF80000080000000000000007C0000F91
:104A3000F00018300030080020080020080030087E
:104A4000001830000FF00007C00000000000000058
:104A50002001003FFF003FFF00101100200900204F
:104A600008002008003038001FF0000FC0000000D0
:104A70000000000007C0001FF000381800200800E8
:104A80002008002009001011001FFF003FFF000058
:104A900001000000002008002008002008003FF866
:104AA000003FF8000808001008002008002000005F
:104AB0003000003000000000000000000000000C8A
:104AC00078001E1800330800230800210800218800
:104AD0000021980030F00038600000000000000065
:104AE000200000200000200000FFF003FFF800205D
:104AF000080020080020080000300000000000002E
:104B0000000000002000003FF0007FF800001800C7
:104B10000008000008002010003FF8007FF00000AF
:104B200010000000000000002000003000003C00E9
:104B3000003F800023F00000780000700023800018
:104B40003C00003000002000002000003C00003F3E
:104B5000E00023F80000E0002700003E00003FE0F6
:104B60000021F80001E0003E0000200000000000ED
:104B70002008002008003838003E68002780000325
:104B8000C8002CF800383800201800200800000069
:104B9000000000002000003003003C01003F8300C3
:104BA00023EC000070002380003C00002000002067
:104BB000000000000000000000000038080020385D
:104BC0000020F80023E8002F88003E080038080085
:104BD000201800007000000000000000000000002D
:104BE000000000000000000008000014001FF7FC97
:104BF000300006200002000000000000000000005D
:104C00000000000000000000000000000000FFFFA6
:104C1000FF00000000000000000000000000000095
:104C20000000000000002000023000061FF7FC001A
:104C30001400000800000000000000000000000058
:104C400000000000000000180000600000400000AC
:104C500040000020000010000008000004000004D4
:104C600000000C0000100000BDE1CAF8464654CB1D
:104C7000E3B7A82A2A2A2A2A2A2A2A2A2A2A2A2AD0
:104C80002A2A2A2A2A2A2A2A2A2A2A2A2A2A2A2A84
:104C90002A2A2A2A2A2A2A2A2A2A2A2A2A2A2A2A74
:104CA0002A2A2A2A2A2A2A2A2A2A2A2A2A2A2A2A64
:104CB0002A2A2A2A2A2A2A2A2A2A2A2A2A2A2A2A54
:104CC0002A2A2A2A2A2A2A2A2A2A2A2A2A2A2A2A44
:104CD0002A2A2A2A2A2A2A2A2A2A2A2A2A2A2A2A34
:104CE0002A2A0D0A00000000BFAACABC464654CBBF
:104CF000E3B7A82A2A2A2A2A2A2A2A2A2A2A2A2A50
:104D00002A2A2A2A2A2A2A2A2A2A2A2A2A2A2A2A03
:104D10002A2A2A2A2A2A2A2A2A2A2A2A2A2A2A2AF3
:104D20002A2A2A2A2A2A2A2A2A2A2A2A2A2A2A2AE3
:104D30002A2A2A2A2A2A2A2A2A2A2A2A2A2A2A2AD3
:104D40002A2A2A2A2A2A2A2A2A2A2A2A2A2A2A2AC3
:104D50002A2A2A2A2A2A2A0D0A0000002A2A2A2A6E
:104D60002A2A2A2A2A2A2A2A2A2A2A2A2A2A2A2AA3
:104D70002A2A2A2A2A2A2A2A2A2A2A2A2A2A2A2A93
:104D80002A2A2A2A2A2A2A2A2A2A2A2A2A2A2A2A83
:104D90002A2A2A2A2A2A2A2A2A2A2A2A2A2A2A2A73
:104DA0002A2A2A2A2A2A2A2A2A2A2A2A2A2A2A2A63
:104DB0002A2A2A2A2A2A2A2A2A2A2A2A2A2A0D0A90
:104DC000000000002A2A2A2A2A2A2A2A2A2A2A2AEB
:104DD0002A2A2A2A2A2A2A2A2A2A2A2A2A2A2A2A33
:104DE0002A2A2A2A2A2A2A2A2A2A2A2A2A2A2A2A23
:104DF0002A2A2A2A2A2A2A2A2A2A2A2A2A2A2A2A13
:104E00002A2A2A2A2A2A2A2A2A2A2A2A2A2A2A2A02
:104E10002A2A2A2A2A2A2A2A2A2A2A2A0D0A000083
:104E20002A2A2A2A2A2A2A2A2A2A2A2A382070744E
:104E3000204D6F76696E67204176657261676520E7
:104E400069722A2A2A2A2A2A2A2A2A2A2A2A2A2A3B
:104E50002A2A2A2A2A2A2A2A2A2A2A2A2A2A2A2AB2
:104E60002A2A2A2A2A2A2A2A2A2A2A2A2A2A2A2AA2
:104E70002A2A2A2A2A2A2A2A2A2A2A2A2A2A2A0DAF
:104E80000A0000002A2A2A2A2A2A2A2A2A2A2A3812
:104E9000207074204D6F76696E672041766572616F
:104EA0006765207265642A2A2A2A2A2A2A2A2A2A37
:104EB0002A2A2A2A2A2A2A2A2A2A2A2A2A2A2A2A52
:104EC0002A2A2A2A2A2A2A2A2A2A2A2A2A2A2A2A42
:104ED0002A2A2A2A2A2A2A2A2A2A2A2A0D0A0000C3
:104EE000004F0008000000204C0000007C1E00085D
:104EF0004C4F00084C000020042900008C1E0008C4
:104F000000A24A04000000000000000001020304A7
:104F1000060708090000000001020304010203045F
:104F2000060708090204060800000000000000004F
:104F30000000000000000000000000000000000071
:0C4F400000000000000000000000000065
:04000005080000ED02
:00000001FF
